:020000040800F2
:1000000068C200206102000843730008D15900084B
:1000100041730008D90D000839980008000000005D
:10002000000000000000000000000000A101000826
:100030004D12000800000000FD010008398B000887
:100040007B0200087B0200087B0200087B0200089C
:100050007B0200087B0200084F1200087B020008A8
:100060007B020008551200085B1200087B020008A2
:10007000710E00087B0200087B0200087B0200086A
:100080007B0200087B0200087B020008E90D0008E3
:10009000DD0D00087B0200087B02000861120008E9
:1000A0007B020008158C00087B0200087B02000818
:1000B000318C00083D8C00087B0200087B020008A0
:1000C0007B0200087B0200087B0200087B0200081C
:1000D0007B020008199800087B0200087B020008D8
:1000E0007B0200087B0200087B0200087B020008FC
:1000F0007B0200087B0200087B0200087B020008EC
:100100007B0200087B0200087B0200087B020008DB
:100110007B0200087B020008518C00085D8C0008FF
:100120007B020008A90E0008B50E0008791100082E
:100130007B0200087B0200087B020008010E000819
:10014000F50D00087B0200087B0200087B02000816
:1001500085110008911100089D1100082D980008D4
:100160007B0200087B0200087B0200087B0200087B
:100170007B0200087B0200087B02000800000000F0
:100180007B0200087B020008DFF810D000F0CCFBF7
:100190000048004715CB0008AFF3008068C200207C
:1001A0002C4B19680868B0E8F04F80F30988BFF35A
:1001B0006F8F4FF0000080F311887047000000003F
:1001C00008480068006880F308884FF0000080F35A
:1001D000148862B661B6BFF34F8FBFF36F8F00DF35
:1001E00000BF00BF08ED00E0DFF80C00016841F43B
:1001F00070010160704700BF88ED00E0EFF30980F7
:10020000BFF36F8F134B1A681EF0100F08BF20ED5D
:10021000108A20E9F04F106009B44FF0500080F3CD
:100220001188BFF34F8FBFF36F8F0FF043FA4FF07A
:10023000000080F3118809BC19680868B0E8F04F25
:100240001EF0100F08BFB0EC108A80F30988BFF3CE
:100250006F8F7047A8000020EFF305807047000003
:100260000648804706480047FEE7FEE7FEE7FEE750
:10027000FEE7FEE7FEE7FEE7FEE7FEE7F98B000894
:10028000890100082DE9F05F0546002092469B4653
:1002900088460646814640241BE02846414647469C
:1002A000224600F0A2F953465A46C01A914110D393
:1002B00011461846224600F089F92D1A67EB01080D
:1002C0004F4622460120002100F080F917EB00097B
:1002D0004E41201EA4F10104DFDC484631462A4687
:1002E0004346BDE8F09F40EA01039B0703D009E0C5
:1002F00008C9121F08C0042AFAD203E011F8013B12
:1003000000F8013B521EF9D27047D2B201E000F86A
:10031000012B491EFBD270470022F6E710B51346A9
:100320000A4604461946FFF7F0FF204610BD421C5E
:1003300010F8011B0029FBD1801A70472DE9FE4FF0
:10034000804681EA0300C00F0C46009021F0004176
:1003500023F00045B8EB0200A94105D240462146F2
:1003600090461C460B46024623F00040104347D0FF
:10037000270DC7F30A00C3F30A510290401A0190F7
:1003800040286BDAC3F3130040F4801B00989246B8
:1003900020B10023D2EB030A63EB0B0B0198594603
:1003A000C0F14002504600F011F906460D46504695
:1003B0005946019A00F029F910EB08006141002428
:1003C00087EA115284EAE7731A4340D0009A62B375
:1003D000019A012A4FEA075215DC001B61EB02016A
:1003E0004FF0004202EA0752CDE90042001C41F5FD
:1003F000801132462B4600F060F903B0BDE8F08F63
:1004000040462146F9E7001B61EB0201001C41F563
:10041000801300185B412018A2F5001747EB030179
:1004200040EAD570B6196D4111E06D084FEA360605
:1004300045EAC0754FEA0752001B61EB0201001C40
:1004400041F5801149084FEA300000195141324608
:100450002B4603B0BDE8F04F00F020B90098012210
:1004600040000023D0EB020263EBE07300982146CA
:100470004FEAE074B8EB000061EB0401E9E783F0B8
:1004800000435BE781F0004158E72DE9FE4F81EA28
:10049000030404F0004421F0004100944FF0000BED
:1004A00023F0004350EA01045ED052EA03045BD01B
:1004B000C3F30A54C1F30A552C44A4F2F334019453
:1004C000A0FB0254C1F3130141F48011C3F31303E1
:1004D00043F4801301FB024400FB034E840A970A95
:1004E00044EA815447EA8357A4FB076802958D0AC2
:1004F00005FB07854FEA932C04FB0C542705029D4E
:100500004FEA065847EA1637B5EB08056EEB070CBD
:10051000870E920E47EA811742EA8312A7FB020177
:10052000B6EB0B0164EB00042B0D43EA0C335E18B1
:1005300044EB1C50DA465146E7FB0201C5F31304B5
:100540004FEA0B3343EA14534FEA0432019C43EA67
:100550000603A4F10C040294009CCDE900B400F061
:10056000ACF803B0BDE8F08F00200146F9E700F0D9
:10057000004230F000400AD0C10D01F56071C0F3B7
:10058000160042EA0151C20840071143704700209B
:100590000146704701F0004330B421F0004150EAB9
:1005A000010206D00A0DA2F56072C1F31301002A00
:1005B00002DC30BC00207047440F44EAC104C10093
:1005C000E01830BC00EBC25000F031B8202A04DB48
:1005D000203A00FA02F1002070479140C2F1200356
:1005E00020FA03F3194390407047202A04DB203A95
:1005F00021FA02F00021704721FA02F3D040C2F143
:1006000020029140084319467047202A06DBCB1789
:10061000203A41FA02F043EAE07306E041FA02F3BD
:10062000D040C2F12002914008431946704700298A
:10063000A8BF7047401C490008BF20F00100704768
:1006400010B4B0FA80FC00FA0CF050EA010404BFC8
:1006500010BC704749B1CCF1200421FA04F411FA1E
:100660000CF118BF012121430843A3EB0C01CB1D62
:100670004FEA00614FEA102042BF002010BC7047D3
:1006800000EBC35010440029A4BF10BC7047401CAD
:10069000490008BF20F0010010BC704710B5141EBF
:1006A00073F1000408DA401C41F1000192185B412B
:1006B0001A4301D120F0010010BD2DE9F04D924602
:1006C0009B4611B1B1FA81F202E0B0FA80F2203219
:1006D0009046FFF77BFF04460F4640EA0A0041EAD6
:1006E0000B0153465A46084313D0114653EA010002
:1006F00019D0C8F140025046FFF777FF05460E4675
:10070000504659464246FFF761FF084305D0012095
:1007100004E020463946BDE8F08D0020054346EA56
:10072000E0762C4337430A986305E40AA0EB0800FF
:100730000022FD0A44EA47540A3002D5002001464F
:10074000E9E7010510196941DDE90845001969412A
:10075000BDE8F04DA2E72DE9F04D81EA030404F075
:10076000004B21F0004514464FF0000A23F00041F1
:1007700050EA050220D054EA01021DD0C5F30A5701
:100780000246C5F31303C1F31300C1F30A5640F444
:10079000801543F48013A7EB0608101BD64608F219
:1007A000FD3873EB050002D308F1010801E092184F
:1007B0005B41B8F1000F03DA00200146BDE8F08D7F
:1007C00000204FF48011064684460EE0171B73EBA1
:1007D000050705D3121B63EB050306434CEA010C26
:1007E00049084FEA300092185B4150EA0107EDD109
:1007F00052EA030012D082EA040083EA05010843AA
:1008000005D0101BAB4106D20122002306E00022D6
:100810004FF0004302E06FF0010253101AEB0600A4
:100820004CEB085110EB0A0041EB0B01BDE8F04D19
:10083000FFF734BF2DE9F04D00231A461B1A8A41F9
:1008400003DB00200146BDE8F08DC1F30A52C1F37D
:10085000130141F480154FF0000BD10702D10018AD
:100860006D41521E0027044640F2FF11384601EB4D
:10087000620A3E468046024600204FF48011FFF790
:10088000B4FEC2197141BB1846EB0100B4EB030C76
:1008900075EB000C04D3E41A65EB000517460E4611
:1008A000241908F101006D4180463428E3DDF9196F
:1008B00046EB0600091BA84103D24FF0FF32134656
:1008C00001E0002213461BEB070046EB0A51BDE88E
:1008D000F04DFFF7E3BE0EB5C10F80EAE0700844AB
:1008E000CA07002140F233438DE80E000A460B464A
:1008F000FFF7E3FE03B000BD30B5041E71F1000444
:1009000004DB4FF00044404264EB0101141E73F11C
:10091000000405DB1C464FF00043524263EB040326
:100920008B4208BF824230BD064C074D06E0E068AE
:1009300040F0010394E8070098471034AC42F6D326
:10094000FFF726FC441901086419010870B58C18DA
:1009500010F8015B15F0070301D110F8013B2A11D3
:1009600006D110F8012B03E010F8016B01F8016BC0
:100970005B1EF9D12B0705D40023521E0DD401F8BC
:10098000013BFAE710F8013BCB1A921C03E013F885
:10099000015B01F8015B521EF9D5A142D8D30020BA
:1009A00070BD0000B7EE000A80ED000A9FED040A5A
:1009B00080ED010A80ED020A80ED030A7047000015
:1009C0000000000093EC033AD2EC031A91EC030A06
:1009D00006F0FCB901221021014802F045B80000E0
:1009E0000000024000221021014802F03DB8000042
:1009F00000000240F0B587B014216846FFF78CFC78
:100A00001848016841F002010160016801F002012B
:100A10000591016841F0010101600068124E00F08B
:100A20000100059001221021304602F01DF80F4F01
:100A300001221146384602F017F801241020CDE9B2
:100A40000004022569463046CDE9024501F084FEE6
:100A50000094694638460194CDE9024501F07CFED8
:100A600007B0F0BD303802400000024000040240F0
:100A700001221146014801F0F7BF000000040240C6
:100A800000220121014801F0EFBF000000040240F4
:100A900030B5437804781B021BB2234300EE103AB2
:100AA0001B4CB8EEC00AD4ED000A20EE200A81EDFE
:100AB000000AC37885781B021BB22B4300EE103A64
:100AC000D4ED000AB8EEC00A20EE200A81ED010A3A
:100AD000437904791B021BB2234300EE103AB8EEAF
:100AE000C00A20EE200ADFED0B0A81ED020A017A2E
:100AF000C3790904807941EA0321014300EE101A09
:100B0000B8EE400A20EE200A82ED000A30BD000057
:100B1000E805002000401C4270470EF0A3BB0AF01D
:100B2000E3BD000010B542780378120212B21A43F6
:100B300000EE102A124BB8EEC00AD3ED010A20EEE7
:100B4000200A81ED000AC2788478120212B2224390
:100B500000EE102AD3ED010AB8EEC00A20EE200AFA
:100B600081ED010A42790079120212B2024300EECD
:100B7000102AB8EEC00A20EE200A81ED020A10BD4C
:100B8000E805002010B5FFF735FFFFF7C5FF09F0B6
:100B9000DBFD08B1802402E009F042FD044609F0C3
:100BA000A1FF10B144F0400010BD09F02DFF20431B
:100BB00010BD00002DE9FC410746002016460D46F9
:100BC00000900190FFF70EFF922000F0BDF8062282
:100BD0006946122000F09AF8FFF7FCFE9DF801002C
:100BE0009DF80010000200B2084300EE100A464CC7
:100BF000B8EEC00AD4ED000A20EE200A85ED000A06
:100C00009DF803009DF80210000200B2084300EEB8
:100C1000100AD4ED000AB8EEC00A20EE200A85EDD5
:100C2000010A9DF805009DF80410000200B2084377
:100C300000EE100AB8EEC00A20EE200A85ED020A86
:100C4000FFF71EFF08226946002000F05FF8FFF75B
:100C50000FFF9DF800000F2830D19DF803009DF88C
:100C60000210000200B2084300EE100AD4ED010A9F
:100C7000B8EEC00A20EE200A87ED000A9DF80500B4
:100C80009DF80410000200B2084300EE100AD4EDF3
:100C9000010AB8EEC00A20EE200A87ED010A9DF88D
:100CA00007009DF80610000200B2084300EE100A8B
:100CB000B8EEC00A20EE200A87ED020AFFF792FE86
:100CC000A22000F041F802226946222000F01EF81E
:100CD000FFF780FE9DF800009DF80110C00040EA7B
:100CE0005110B0F5806F01DBA0F5006000EE100A36
:100CF000B4EE001AF8EEC00AB3EE070A00EE810A5D
:100D000086ED000ABDE8FC81E805002070B51446B8
:100D10000D4640F0800000F017F806E0552000F086
:100D200013F8641E05F8010BE4B2002CF6D170BD77
:100D300010B50C4640F0800000F006F8552000F099
:100D400003F8207010BD000001B582B04FF47A7036
:100D50000090012301AA02A9024803F0D3F89DF8EC
:100D600004000EBD2407002002784078D20042EA39
:100D70005010B0F5806F01DBA0F5006000EE100AA6
:100D8000B4EE001AF8EEC00AB3EE070A00EE810ACC
:100D900081ED000A704710B50C46FFF7D5FF2046DD
:100DA000BDE81040FFF7D0BF094910B5086844F608
:100DB000206200234968FFF765FA1A4306D1054807
:100DC000D0F8AC1281F00101C0F8AC1210BD0000E7
:100DD0003800002000804342FEE70000014800F098
:100DE00017BE000050060020014800F011BE0000B0
:100DF00050060020014800F00BBE000078060020DD
:100E0000014800F005BE00007806002030B58BB028
:100E100028216846FFF780FA002401200194CDE9DB
:100E200006400E2503940494CDE90805059400942A
:100E3000029469460D4800F04FFC0C4801F014F98B
:100E400002210A4800F042FB084869462830CDE9F3
:100E5000044500F041FC0548283001F005F903483D
:100E60000221283000F032FB0BB030BD50060020CC
:100E700010B5094801F084F90AF088FE01460748D8
:100E80000AF088FE12220549054804F0F5FC0FF02F
:100E90005BFD0449086010BD980B0020E4090020A8
:100EA000580A002024040020014801F069B900001C
:100EB000F80B00202DE9F05FA748A84BA84CC06CA8
:100EC000A64DA74EA54F0068A449DFF89492DFF81D
:100ED0008CA2DFF88CB2DFF884E2A14A483B603490
:100EE00018351836303F09F178090AF1300A4FF405
:100EF000006C0BF1300BAEF1180E884223D99749E4
:100F0000543926E0A84233D14FF020080AE050457A
:100F100035D1E04606E000BF4FF4001802E000BF04
:100F20004FF0006811EA080F7CD08C49884253D9F1
:100F3000904205D0984203D0A04201D0A8422FD1C0
:100F40004FF0200C45E08649A831884203D98349F7
:100F50005839096805E08249483188428149F8D901
:100F600049689042D0D09842CED0A042CCD0C9E7B8
:100F7000B042CED0B842CCD04845CAD0C7E75845D9
:100F8000CAD07045C8D0DFF8D88108F19008404534
:100F9000C2D0DFF8C88108F148084045C0D1BBE79E
:100FA000B04216D0B84214D0484512D0504510D0A7
:100FB000584509D0704507D069499031884203D01F
:100FC00066494831884202D14FF4001C01E04FF0DD
:100FD000006C62484C382AE06149A831884229D91E
:100FE000904205D0984203D0A04201D0A84202D13D
:100FF0004FF0200C19E0B04217D0B84215D0484548
:1010000013D0504511D0584509D0704507D05449E8
:101010009031884203D051494831884203D14FF47E
:10102000001C02E095E04FF0006C4C485038C0F8CE
:1010300000C052E04A494831884227D9904205D041
:10104000984203D0A04201D0A84202D14FF0200C18
:1010500018E0B04216D0B84214D0484512D05045DE
:1010600010D0584509D0704507D03D49903188428D
:1010700003D03A494831884202D14FF4001C01E0C4
:101080004FF0006C3748C0F80CC026E0904205D005
:10109000984203D0A04201D0A84202D14FF0200CC8
:1010A00018E0B04216D0B84214D0484512D050458E
:1010B00010D0584509D0704507D029499031884251
:1010C00003D026494831884202D14FF4001C01E088
:1010D0004FF0006C2348C0F808C0234C20788007EC
:1010E0000CD5207820F002002070207840F0040019
:1010F0002070012211461D4801F0B6FC60781C4D9D
:1011000080070CD5607820F002006070607840F0B5
:101110000400607001221021284601F0A5FCA0788F
:1011200080070CD5A07820F00200A070A07840F0D5
:101130000400A07001221021284601F095FC0BF05C
:10114000E5F92078400704D50A48016841F001011B
:101150000160BDE8F09F00002407002058640240B1
:101160001060024000600240700300200004024052
:1011700000000240103C0140014801F001B80000AD
:10118000DC070020014800F0FBBF0000380B002006
:10119000014800F0F5BF0000580C0020014800F0A5
:1011A000EFBF0000D80A002001681823CAB2103A25
:1011B000B2FBF3F2054B6FF30901032A9B5CC36595
:1011C00000D9091D8165084670470000140D01080B
:1011D00010B5014600208B698A6A4FF0C07453B184
:1011E000B3F5005F15D072B1012A0CD0022A0AD0E3
:1011F000032A09D104E01AB1012A06D0022A03D138
:10120000C96AC90100D5012010BDC96AA142FAD03E
:1012100010BD002AF7D0012AF2D0022AF3D0032A07
:10122000F3D010BD30B50468256825F4802525600D
:10123000046863608368402B036803D0996000688A
:10124000C26030BD9A600068C16030BD7047012047
:1012500001F076BA082001F073BA102001F070BADC
:10126000202001F06DBA72B6FEE7000088B00025BC
:101270004FF0030801241C2248496846FFF733F861
:10128000002004F03FFF00986E46C1B201202A22E0
:1012900004F054FF03982022C1B2012004F04EFF55
:1012A0003F4F64200DF0DEFF16F8251020462A225D
:1012B00004F044FF7888012806D03888012828D017
:1012C000B88801284BD066E064200AF0F1F97888EC
:1012D000012860D16D1C454501DD002510E07DB180
:1012E00016F8251020462A2204F028FF06EB850078
:1012F00010F8040C2022C1B2204604F01FFF4AE07F
:1013000000982A22C1B2204604F018FF16F82800DF
:10131000F0E764200AF0CCF9388801283BD18DB180
:1013200016F825102046202204F008FF06EB850061
:101330002A2210F8041C204604F000FF6D1E2AD556
:10134000454628E000982022C1B2204604F0F6FE6F
:1013500016F8281020462A2204F0F0FEF0E7642058
:101360000AF0A6F9B888012815D1002004F0CAFEB9
:1013700035B1012D07D0022D08D0032D0BD108E087
:1013800009F074FC07E00CF055F804E00BF048FAA3
:1013900001E00EF04FFB0BF0F5FB82E7340D010886
:1013A000F07B00204FF496700DF05CFF0BF0DAFC40
:1013B0000CF0A6FFFFF75AFF70B5304C304D31A24C
:1013C0000021072004F0D4FE34A20121072004F0FC
:1013D000CFFE94ED000A022201213A2004F02AFFF8
:1013E00030A20221072004F0C3FE022294ED030A7A
:1013F00011463A2004F01EFF2CA20321072004F01E
:10140000B7FE94ED010A022203213A2004F012FFF4
:1014100028A20421072004F0ABFE94ED040A022266
:1014200004213A2004F006FF24A20521072004F03D
:101430009FFE94ED020A022205213A2004F0FAFEF2
:1014400020A20621072004F093FE94ED050A022253
:1014500006213A2004F0EEFE0A200DF003FFE88892
:101460000128ACD164200AF023F9E8880128A6D12C
:10147000BDE87040002004F045BE0000348000202C
:10148000F07B002020202020202020204759524F90
:101490002020202020202020000000007961773AC1
:1014A000000000006779726F5F783A0070697463BA
:1014B000683A00006779726F5F793A00726F6C6CFE
:1014C0003A0000006779726F5F7A3A0070B590F861
:1014D00020600D4604460C48814204D94FF4D06187
:1014E0000AA009F069F8012E07D0022E05D0606A23
:1014F00040F480206062012070BD2068416929436A
:101500004161002070BD00007F8F03002E2E2F440C
:101510007269766572732F53544D3332463478783E
:101520005F48414C5F4472697665722F5372632F36
:1015300073746D3332663478785F68616C5F6361B1
:101540006E2E63002DE9F04790F8208099461646EC
:101550000D46044600688768886830B1042804D0C6
:1015600040F2E9414EA009F027F8E86830B10228BE
:1015700004D040F2EA414AA009F01EF82869082880
:1015800004D940F2EB4146A009F016F8A8680028FB
:101590001BD06868B0F1005F04D340F2F24140A074
:1015A00009F00AF8287D30B1012804D040F2F44156
:1015B0003BA009F001F8B8F1010F0DD0B8F1020F0E
:1015C0000AD0606A40F4802066E02868B0F5006FB9
:1015D000E8D340F2EE41E2E717F0406F01D1F800A6
:1015E00057D5C7F30160022803D9606A40F40000B0
:1015F00052E001218140C9F80010AA684FF4C0717F
:101600009AB1EB681A436B6842EAC302236801EBA4
:101610000017DA514FF4C272276802EB00122B69EF
:10162000BB502B7D012B05D009E02B88EA6842EAEC
:101630004352EBE723689D5845F480759D503279FD
:10164000F379757942EA0362B3791B0443EA05230F
:101650001A434FF4C675236805EB00155A513278CA
:10166000F378757842EA0362B3781B0443EA0523F2
:101670001A434FF4C475236805EB00155A512268CC
:1016800001EB0010115841F0010111500020BDE89C
:10169000F087606A40F4001060620120F7E7000004
:1016A0002E2E2F447269766572732F53544D333248
:1016B000463478785F48414C5F4472697665722F92
:1016C0005372632F73746D3332663478785F686158
:1016D0006C5F63616E2E630070B50C4690F820104D
:1016E000012907D0022905D0416A41F480214162D5
:1016F000012070BD20684FF48035A84204D34FF418
:10170000547163A008F058FF6068A84204D340F207
:1017100051315FA008F050FFA068A84204D340F206
:1017200052315BA008F048FFE068A84204D340F2C1
:10173000533157A008F040FFA06930B1012804D010
:101740004FF4557152A008F037FFE06930B101281D
:1017500004D040F255314EA008F02EFF206930B180
:10176000012804D040F2563149A008F025FF206A34
:1017700030B1012804D040F2573145A008F01CFFD9
:101780006069514D1B2804D940F2723140A008F025
:1017900013FF606A1B2804D940F273313CA008F0A3
:1017A0000BFFD5F8000240F00100C5F80002D5F8A3
:1017B000000220F47C50C5F80002D5F80002616AEE
:1017C00040EA0120C5F80002207D00F01F01012041
:1017D0008840D5F81C128143C5F81C12E169B1B9E3
:1017E000D5F80C128143C5F80C12A289616862F326
:1017F0001F41626905EBC202C2F8401222892168CA
:1018000062F31F41626905EBC202C2F84412E1694A
:10181000012916D1D5F80C120143C5F80C12228803
:10182000616862F31F41626905EBC202C2F84012AF
:101830002289E16862F31F41626905EBC202C2F8C6
:101840004412A1690029D5F804120FD051EA000111
:10185000C5F8041221690029D5F8141208D00143F3
:10186000C5F81412216A012904D008E08143EFE78A
:101870008143F5E7D5F81C120143C5F81C12D5F8D1
:10188000000220F00100C5F80002002070BD000039
:101890002E2E2F447269766572732F53544D333256
:1018A000463478785F48414C5F4472697665722FA0
:1018B0005372632F73746D3332663478785F686166
:1018C0006C5F63616E2E630000640040704700002F
:1018D0002DE9F04190F820801D4617460E00044681
:1018E00006D0012E04D04FF4BE613BA008F064FE88
:1018F000B8F1010F06D0B8F1020F03D0606A40F4CE
:1019000080205EE02068002E56D00069800755D008
:101910004FF4D870216800EB0610095811F004014B
:10192000B960216809584FD0C90879602168085802
:1019300000F00200F8604FF4DA70216800EB061046
:10194000095801F00F01396121680958C1F30721D5
:10195000B96121680858000C78614FF4DC70216887
:1019600000EB06100958297021680958090A6970A6
:1019700021680958090CA97021680858000EE87000
:101980004FF4DE70216800EB0610095829712168B8
:101990000958090A697121680958090CA971216857
:1019A0000858000EE87120688EB1016941F02001ED
:1019B00001610020BDE8F081C068A7E7606A40F4DB
:1019C000001060620120F5E7490D3960AEE7C1689B
:1019D00041F02001C160ECE72E2E2F44726976653C
:1019E00072732F53544D3332463478785F48414CEC
:1019F0005F4472697665722F5372632F73746D330F
:101A000032663478785F68616C5F63616E2E630064
:101A10002DE9F05F0546006800244669D0F804907F
:101A20008768D0F80CB0D0F810A0D0F81880F10773
:101A300048D0F90714D001218160B80703D52846A2
:101A400000F03FFB0CE0780702D54FF4006407E09C
:101A5000380702D54FF4805402E0284600F030FBEE
:101A6000F80516D529684FF480708860B80503D54D
:101A7000284600F028FB0CE0780502D544F4005419
:101A800007E0380502D544F4804402E0284600F01F
:101A900019FBF80316D529684FF480308860B80325
:101AA00003D5284600F011FB0CE0780302D544F47E
:101AB000004407E0380302D544F4803402E02846AD
:101AC00000F002FB300707D55FEACB6004D5296838
:101AD000102044F40074C86070074FF0080707D561
:101AE0005FEA0B7004D52868C760284600F088FAC2
:101AF000B00706D52868C068800702D0284600F0E5
:101B000081FA700607D55FEACA6004D529681020FB
:101B100044F480640861B00607D55FEA0A7004D512
:101B200028680761284600F09BFAF00606D5286869
:101B30000069800702D0284600F093FAB00308D568
:101B40005FEAC96005D5296810204860284600F082
:101B500089FAF00307D55FEA097004D52868476061
:101B6000284600F0B3FA300446D55FEA497040D504
:101B7000F00504D55FEAC87001D044F00104B00557
:101B800004D55FEA887001D544F00204700504D5DD
:101B90005FEA487001D544F00404300529D518F0F7
:101BA000700F26D008F07000402815D006DC1028F1
:101BB00009D020280AD0302816D10AE050280ED0AB
:101BC000602811D10EE044F008040DE044F0100448
:101BD0000AE044F0200407E044F0400404E044F04C
:101BE000800401E044F480742868816921F0700168
:101BF0008161296804204860002C05D0686A204370
:101C000068622846FFF762FEBDE8F09F70B50400E9
:101C10007ED0A4492068884207D0A349884204D0D6
:101C200040F21D11A1A008F0C7FC207E30B10128B0
:101C300004D04FF48F719DA008F0BEFC607E30B1DF
:101C4000012804D040F21F1198A008F0B5FCA07E36
:101C500030B1012804D04FF4907194A008F0ACFC8E
:101C6000E07E30B1012804D040F221118FA008F0AD
:101C7000A3FC207F30B1012804D04FF491718BA0D8
:101C800008F09AFC607F30B1012804D040F22311A3
:101C900086A008F091FCA06868B1B0F1804F0AD02E
:101CA000B0F1004F07D0B0F1404F04D04FF4927123
:101CB0007EA008F081FCE06868B1B0F1807F0AD0B6
:101CC000B0F1007F07D0B0F1407F04D040F2251181
:101CD00076A008F071FC206998B3B0F5803F30D051
:101CE000B0F5003F2DD0B0F5403F2AD0B0F5802FA1
:101CF00027D0B0F5A02F24D0B0F5C02F21D0B0F55B
:101D0000E02F1ED0B0F5002F1BD0B0F5102F00E053
:101D100041E016D0B0F5202F13D0B0F5302F10D001
:101D2000B0F5402F0DD0B0F5502F0AD0B0F5602F90
:101D300007D0B0F5702F04D04FF493715BA008F07A
:101D40003BFC6069C8B1B0F5801F16D0B0F5001F2C
:101D500013D0B0F5401F10D0B0F5800F0DD0B0F506
:101D6000A00F0AD0B0F5C00F07D0B0F5E00F04D037
:101D700040F227114DA008F01FFC6068401EB0F52E
:101D8000806F04D34FF4947148A008F015FC94F8C8
:101D9000200010B104E0012070BD204600F0A2F840
:101DA0002068016821F00201016000F093FE054601
:101DB000052604E000F08EFE401B0A2811D820689A
:101DC00040688007F6D42068016841F00101016095
:101DD00000F080FE05460BE000F07CFE401B0A2868
:101DE00006D9606A40F40030606284F82060D2E76F
:101DF00020684068C007EFD0207E01282068016875
:101E00003DD021F080010160607E012820680168DA
:101E100038D021F040010160A07E012820680168CF
:101E200033D021F020010160E07E012820680168A4
:101E30002ED041F010010160207F01282068016848
:101E400029D021F008010160607F01282068016825
:101E500024D021F004010160D4E902010843D4E94F
:101E60000412114308436168491E08432168C86190
:101E700000206062012084F82000002070BD41F045
:101E80008001C0E741F04001C5E741F02001CAE709
:101E900021F01001CFE741F00801D4E741F004013F
:101EA000D9E7000000640040006800402E2E2F4457
:101EB0007269766572732F53544D33324634787895
:101EC0005F48414C5F4472697665722F5372632F8D
:101ED00073746D3332663478785F68616C5F636108
:101EE0006E2E6300F0B587B0044614216846FEF7F5
:101EF00013FA3E4B3E48DFF8F0E01968D4F800C012
:101F00003B4A03250226092710300024491CF445CA
:101F10002AD11960012907D1016841F000710160DF
:101F2000006800F000700590106840F00800106034
:101F30001068CDE9005600F00800CDE9047069464C
:101F40002C48CDE9024500F007FC002205211320B2
:101F500001F00CFA132001F0D7F90022052114201A
:101F600001F004FA14203AE0DFF88CE0F44538D1AF
:101F7000D0F800C04CF0806CC0F800C0D0F800C0B1
:101F800001290CF0806CCDF814C0196007D10168EC
:101F900041F000710160006800F000700590106869
:101FA00040F002001060106802AB00F002000590E3
:101FB0006020CDE9000683E8B00069460F4800F0D4
:101FC000CBFB002205213F2001F0D0F93F2001F09A
:101FD0009BF900220521402001F0C8F9402001F0C2
:101FE00093F907B0F0BD000000640040100000202D
:101FF00030380240000C02400068004000040240FB
:102000007047000010B5044600681149884209D1A4
:10201000104B114A00212046FFF75AFC0D490E488B
:1020200008F0C8FF0D49206888420FD1094B0A4AC1
:1020300008331C3200212046FFF74AFC05490648B8
:102040000831BDE810401C3009F004B810BD000094
:1020500000640040140000201806002000680040C2
:10206000704770477047000070B5044690F8200034
:10207000012804D0606A40F40020606218E0022069
:1020800084F820002068016821F00101016000F05F
:1020900021FD05460EE000BF00F01CFD401B0A2894
:1020A00008D9606A40F400306062052084F820009E
:1020B000012070BD20684068C007EDD1606270BD2E
:1020C00070477047704770477047704770472DE9F9
:1020D000F0410446876D00F0FDFC064694F835009B
:1020E0000025022806D08020606584F83450012045
:1020F000BDE8F0812068016821F0160101602068C8
:10210000416921F080014161206C08B9A06C20B1C7
:102110002068016821F0080101602068016821F051
:10212000010101600BE000F0D5FC801B052806D9F9
:102130002020606504F8345F03206070D8E72068D1
:102140000068C007EFD194F85C103F208840B86069
:1021500004F8345F012060700020C9E790F8351062
:10216000022903D08021416501207047052180F8B4
:1021700035100068016821F00101016000207047FE
:102180002DE9F84304464FF00009CDF8009063486C
:102190004FF41651A56D0068B0FBF1F72E6894F866
:1021A0005C10082000FA01F131420FD021680A6862
:1021B00052070BD50A6822F004020A6094F85C10FA
:1021C0008840A860606D40F00100606594F85C1084
:1021D0004FF0010808FA01F0304208D0216849693F
:1021E000090604D5A860606D40F00200606594F8AF
:1021F0005C1004208840304208D0216809688907B3
:1022000004D5A860606D40F00400606594F85C102F
:1022100010208840304218D021680968090714D579
:10222000A86020680168490304D50068000308D548
:10223000A16C07E00168C90503D4016821F0080119
:102240000160216C09B12046884794F85C10202079
:102250008840304231D021680968C9062DD5A86070
:1022600094F8350005282068016806D0490347D551
:10227000006800031DD4616C1CE021F016010160B0
:102280002068416921F080014161206C08B9A06C8F
:1022900020B12068016821F00801016094F85C1009
:1022A0003F208840A86084F8349084F83580216D00
:1022B0001FE0E16B09B120468847606D00282BD0F4
:1022C000606DC00714D0052084F8350020680168CF
:1022D00021F0010101600098401C0090B84203D831
:1022E00020680068C007F6D184F8349084F83580FF
:1022F000E16C002910D001B02046BDE8F04308474A
:102300000168C905D5D4016821F01001016084F885
:10231000349084F83580CCE7BDE8F883A400002031
:102320002DE9F041044600F0D5FB0546002C7CD099
:10233000A249206888423ED0A049183188423AD04C
:102340009E493031884236D09C494831884232D04B
:102350009A49603188422ED09849783188422AD0F3
:1023600096499031884226D09449A831884222D09B
:10237000934988421FD09249183188421BD0904916
:102380003031884217D08E494831884213D08C4969
:10239000603188420FD08A49783188420BD0884911
:1023A0009031884207D08649A831884203D0B821AD
:1023B00084A008F001F96068C0B1B0F1007F15D0C9
:1023C000B0F1806F12D0B0F1C06F0FD0B0F1006FDC
:1023D0000CD0B0F1206F09D0B0F1406F06D0B0F151
:1023E000606F03D0B92177A008F0E6F8A06838B193
:1023F000402805D0802803D0BA2172A008F0DCF86C
:10240000E068B0F5007F04D018B1BB216DA008F0E2
:10241000D3F82069B0F5806F04D018B1BC2169A051
:1024200008F0CAF8606958B100E071E0B0F5006FDB
:1024300006D0B0F5805F03D0BD2162A008F0BCF8E3
:10244000A06948B1B0F5005F06D0B0F5804F03D069
:10245000BE215CA008F0B0F8E06940B1B0F5807F23
:1024600005D0202803D0BF2156A008F0A5F8206A87
:1024700060B1B0F5803F09D0B0F5003F06D0B0F5AF
:10248000403F03D0C0214FA008F096F8606A0028B2
:1024900032D0042806D0C1214AA008F08DF8606A25
:1024A000002829D0A06A48B1012807D0022805D009
:1024B000032803D0C62143A008F07EF8E06A60B18B
:1024C000B0F5000F09D0B0F1807F06D0B0F1C07F29
:1024D00003D0C7213BA008F06FF8206B60B1B0F5C6
:1024E000001F09D0B0F5800F06D0B0F5C00F03D0A3
:1024F000C82134A008F060F8002684F83460022077
:1025000084F835002068016821F0010101600EE0C7
:102510000120BDE8F08100BF00F0DCFA401B052877
:1025200005D920206065032084F83500F1E7206894
:102530000068C007F0D12268116830480140D4E932
:1025400001031843D4E903352B4318436369184347
:10255000A3691843E3691843236A18430843616A6F
:10256000042903D1D4E90B131943084310602068F0
:102570004069656A20F0070128460D4301270428B9
:102580000CD1A06A0543E06A40B12046FEF720FE68
:1025900020B14020606584F83570B9E72068456156
:1025A0002046FEF701FE94F85C203F2191408160B7
:1025B000666584F835700020ABE7000010600240CB
:1025C000106402402E2E2F447269766572732F5369
:1025D000544D3332463478785F48414C5F447269D9
:1025E0007665722F5372632F73746D33326634784D
:1025F000785F68616C5F646D612E63003F8010F0EE
:102600002DE9F04789460446876D0025581E4FF690
:10261000FF711E469046884204D34FF4E6711CA019
:1026200007F0CAFF94F8340001280DD0012084F887
:10263000340094F835100020012907D084F83400C4
:1026400002252846BDE8F0870220FBE7022184F836
:10265000351060653346424649462046FEF7E2FDA6
:1026600094F85C103F208840B8602068016841F011
:1026700016010160206C20B12068016841F008015A
:1026800001602068016841F001010160D9E70000A4
:102690002E2E2F447269766572732F53544D333248
:1026A000463478785F48414C5F4472697665722F92
:1026B0005372632F73746D3332663478785F686158
:1026C0006C5F646D612E630010B51B4C10281AD02E
:1026D000202821D008282AD0012813D10EF026F96D
:1026E00001280FD004F10C0120690CF07DFEE06898
:1026F000002807D011494FF080500860BFF34F8F7A
:10270000BFF36F8F10BD607840F001006070A0785B
:1027100040F00100A07003E0207840F0010020703C
:1027200020790028EED0BDE8104009F0EFBEE07837
:1027300040F00100E07010BD7003002004ED00E0E7
:10274000044910B50A68024202D00860FFF7BCFFD6
:1027500010BD0000143C01402DE9F84F0446A1488B
:102760000D4684421BD0A048844218D09F48844222
:1027700015D09F48844212D09E4884420FD09E4874
:1027800084420CD09D48844209D09D48844206D0A2
:102790009C48844203D0B3219BA007F00DFF28681A
:1027A0000104090C01D0000C03D0B42196A007F05D
:1027B00003FF6868F8B101281DD011281BD002283A
:1027C00019D0122817D09F49884214D09E498842B8
:1027D00011D09E4988420ED09D4988420BD09D4918
:1027E000884208D09C49884205D0032803D0B521EF
:1027F00085A007F0E1FEA86838B1012805D00228BD
:1028000003D0B62180A007F0D7FE00264FF0010AC2
:102810004FF0030B0AFA06F02F6880460740474541
:102820007ED16868012805D0022803D0112801D084
:1028300012281DD1E86848B1012807D0022805D028
:10284000032803D0C82170A007F0B6FEA06872006C
:102850000BFA02F18843E96891400143A160606886
:10286000297920EA0800C1F30011B14001436160F9
:10287000E0687200A96890460BFA02F920EA0900A4
:1028800001FA08F10143E1606868022801D01228CA
:102890002ED12869F8B109281DD001281BD00228A3
:1028A00019D0032817D0042815D0052813D00628DE
:1028B00011D007280FD008280DD00A280BD00B28DC
:1028C00009D00C2807D00D2805D00F2803D0E0210F
:1028D0004DA007F071FEF00804EB8003196A700741
:1028E000C20E0F209040814328699040084318622F
:1028F0002068297920EA090001F0030101FA08F1B2
:10290000014321606868C00065D55448016841F4FE
:1029100080410160006826F0030100F4804000E07F
:1029200059E000904E480A18D2F80808B1070B0F7A
:102930000F21994088432B498C4201D1002123E08B
:1029400029498C4201D101211EE028498C4201D144
:10295000022119E026498C4201D1032114E02549C6
:102960008C4201D104210FE023498C4201D1052181
:102970000AE022498C4201D1062105E020498C421F
:1029800001D1072100E0082199400143C2F808184D
:10299000344908686A68B843D20300D538430860F0
:1029A0003049091D08686A68B843920300D5384366
:1029B00008602C49083108686A68B843D20200D51B
:1029C0003843086027490C3108686A68B8439202A6
:1029D00000D538430860761C102EFFF41BAFBDE80D
:1029E000F88F00000000024000040240000802408E
:1029F000000C024000100240001402400018024087
:102A0000001C0240002002402E2E2F447269766581
:102A100072732F53544D3332463478785F48414CAB
:102A20005F4472697665722F5372632F73746D33CE
:102A300032663478785F68616C5F6770696F2E63A7
:102A400000000000000011100000211000003110F3
:102A50000000121000002210000032104438024022
:102A600000300140003C014070B515460C000646A0
:102A700004D140F29F1108A007F09EFD45B1012D41
:102A800004D04FF4D07104A007F096FDB46170BD7E
:102A90002004B06170BD00002E2E2F44726976654F
:102AA00072732F53544D3332463478785F48414C1B
:102AB0005F4472697665722F5372632F73746D333E
:102AC00032663478785F68616C5F6770696F2E6317
:102AD000000000000148806870470000940000205A
:102AE00070B504007DD08A49206888420AD089499F
:102AF000884207D08849884204D040F2BF1187A09D
:102B000007F05AFD60689349401E884204D94FF48B
:102B1000E07182A007F050FDA0684FF4804530B10D
:102B2000A84204D040F2C1117CA007F045FDE06846
:102B3000800A04D04FF4E17178A007F03DFD2069D0
:102B4000A84207D0B0F5404F04D040F2C31173A0A3
:102B500007F032FD606930B1012804D04FF4E27112
:102B60006EA007F029FDA06930F0FE0004D040F20D
:102B7000C5116AA007F020FDE06930B1402804D0FB
:102B80004FF4E37165A007F017FD206A30B180288B
:102B900004D040F2C71161A007F00EFD94F83D008B
:102BA000002520B984F83C50204600F0BBFA2420D0
:102BB00084F83D002068016821F00101016020686F
:102BC000016841F4004101602068016821F400417E
:102BD000016000F0A1FD604A6168914202D85F493E
:102BE00001E002E05E49884201D2012070BD5D49EA
:102BF0002368B0FBF1F15E6826F03F060E435E608D
:102C00006368934206D94FF4967359434FF47A732D
:102C1000B1FBF3F12368491C1E6A26F03F063143DD
:102C200019626168914210D84900401EB0FBF1F270
:102C3000521CC2F30B02042A01D2042022E0B0FB92
:102C4000F1F0401CC0F30B001CE0A368F3B301EBF0
:102C5000C10202EB0116421EB2FBF6F2521C42F414
:102C60008042120549D093B301EBC10202EB01117E
:102C7000401EB0FBF1F0401CC0F30B0040F480405C
:102C800040F400402168CA694CF6FF739A43104330
:102C9000C861D4E9071001432068026822F0C0022D
:102CA00011430160D4E9030101432068826848F2BE
:102CB000FF339A4311438160D4E905010843216839
:102CC000CA6822F0FF021043C86001E00EE016E07F
:102CD0002068016841F0010101602564202084F82A
:102CE0003D00256384F83E50002070BD01EB410695
:102CF000421EB2FBF6F2521CB3E70120C2E701EB21
:102D00004101401EB0FBF1F0401CC0F30B00B7E7DF
:102D10000054004000580040005C00402E2E5C44EF
:102D20007269766572735C53544D333246347878E9
:102D30005F48414C5F4472697665725C5372635CB4
:102D400073746D3332663478785F68616C5F6932B2
:102D5000632E63007F1A0600A086010080841E0097
:102D600000093D0040420F002DE9FF4F83B01F4690
:102D7000DDE911A893460446DDF84090FFF7AAFE6E
:102D80000546012F06D0102F04D04FF41F6175A007
:102D900007F012FC94F83D00202870D1192301227D
:102DA0007E492046009502F023FF0028F5D194F8D3
:102DB0003C00012863D0012084F83C0020680168B1
:102DC000C90703D1016841F0010101602068016871
:102DD00021F400610160222084F83D00402084F845
:102DE0003E0000262664C4F82490A4F82AA0608D32
:102DF00020856B48E062CDE900853B465A46204677
:102E0000049902F0FDFD00287CD1208DD0B101286D
:102E100021D00228206824D0416980690090208D4B
:102E2000032869D801282BD05E49022843464FF079
:102E30000002009559D00F46204602F0D9FE002826
:102E400060D13CE02068416981690091016841F4EA
:102E50000071016077E02068016821F48061016001
:102E6000F0E7016821F4806101602068016841F4A5
:102E700000610160206841698069009063E06FE053
:102E80002A464146204602F032FF98BB206800697E
:102E9000616A08704EE02068016841F400710160C9
:102EA00020680069616A0870606A401C6062218D58
:102EB000491E2185618D491E6185216838E02068A1
:102EC000016821F48061016020680069616A08700E
:102ED000606A401C6062208D401E2085608D401E0F
:102EE00060854346002239460095204602F080FE68
:102EF00000B9D0E706E0FFE72A464146204602F047
:102F0000F6FE18B1012007B0BDE8F08F2068006917
:102F1000616A0870606A401C6062218D491E2185CB
:102F2000618D491E618521684A69D24352070AD4DE
:102F300009690170606A401C6062208D401E208516
:102F4000608D401E6085208D00287FF468AF2020B2
:102F500084F83D0084F83E6084F83C600020D2E7AD
:102F60000220D0E72E2E5C447269766572735C5342
:102F7000544D3332463478785F48414C5F4472692F
:102F80007665725C5372635C73746D333266347849
:102F9000785F68616C5F6932632E63000200100025
:102FA0000000FFFF040001002DE9FF4F83B01F4622
:102FB000DDE911A893460446DDF84090FFF78AFD4D
:102FC0000546012F06D0102F04D040F6751145A0FC
:102FD00007F0F2FA94F83D0020287DD11923012250
:102FE0004E492046009502F003FE002877D194F860
:102FF0003C00012873D0012084F83C00206801685F
:10300000C90703D1016841F001010160206801682E
:1030100021F400610160212084F83D00402084F803
:103020003E0000262664C4F82490A4F82AA0608DEF
:1030300020853B48E062CDE900853B465A46204664
:10304000049902F05BFD70B930E02A464146204603
:1030500002F080FE58B1206C042804D12068016879
:1030600041F400710160012007B0BDE8F08F606A93
:10307000216800780861606A401C6062218D491EE9
:1030800089B22185628D521E628522685369DB43B5
:103090005B070BD469B100781061606A401C606204
:1030A000208D401E2085608D401E6085208D00286B
:1030B000CBD12A464146204602F074FD0028CAD1F1
:1030C00054F83D0B016841F400710160202004F8C0
:1030D0001E09E677667700E001E00020C4E70220E1
:1030E000C2E700002E2E5C447269766572735C53F1
:1030F000544D3332463478785F48414C5F447269AE
:103100007665725C5372635C73746D3332663478C7
:10311000785F68616C5F6932632E630002001000A3
:103120000000FFFFF0B587B0044614216846FDF7A4
:10313000F3F81A49206888422DD11948016841F0F6
:1031400004010160016801F004010591016841F08A
:10315000010101600068122400F0010005904FF4A5
:1031600000700125032604278DE8F10069460D480B
:10317000FFF7F2FA28028DE8F10069460A48FFF7E6
:10318000EBFA07481030016841F400010160006863
:1031900000F40000059007B0F0BD0000005C0040A6
:1031A00030380240000802400000024002488168B6
:1031B0000278114481607047940000200B4810B5DC
:1031C000016841F400710160016841F480610160AF
:1031D000016841F480710160032000F017F90020BC
:1031E00000F006F800F03EF8002010BD003C024060
:1031F00010B5014688B000221C2000F0B7F81C2052
:1032000000F082F814480024016841F001010160D7
:10321000006805A900F001000690684600F05CFA1D
:1032200000F07AFA0D494000B0FBF1F10C484FF084
:103230008042491E026040F2E732C0E90324C0E93F
:10324000011401F0F3F810B1012008B010BD0448DA
:1032500001F008FAF9E700004038024040420F0050
:10326000B80C00200C4882B0016841F48041016034
:10327000006800F4804000900748001F016841F09A
:10328000805101600068002200F0805000900F2102
:10329000901E02B000F06AB84438024010B5040035
:1032A00003D5CE2109A007F087F9002C0DDB04F02F
:1032B0001F01012088406109890001F1E021C1F866
:1032C0008001BFF34F8FBFF36F8F10BD2E2E2F44A1
:1032D0007269766572732F53544D33324634787861
:1032E0005F48414C5F4472697665722F5372632F59
:1032F00073746D3332663478785F68616C5F636FC6
:10330000727465782E63000010B5040003D5BE21E9
:1033100007A007F051F9002C09DB04F01F01012080
:1033200088406109890001F1E021C1F8000110BD68
:103330002E2E2F447269766572732F53544D33329B
:10334000463478785F48414C5F4472697665722FE5
:103350005372632F73746D3332663478785F6861AB
:103360006C5F636F727465782E63000070B51546EC
:103370000C460646102A03D3AA2114A007F01CF914
:10338000102C03D3AB2111A007F016F91E480068DA
:10339000C0F30223C3F107022046042A00D9042205
:1033A000191D072901D2002300E0DB1E012404FAC5
:1033B00002F1491E014099409C40641E2C4021436B
:1033C0003046BDE8704006F063BA00002E2E2F4450
:1033D0007269766572732F53544D33324634787860
:1033E0005F48414C5F4472697665722F5372632F58
:1033F00073746D3332663478785F68616C5F636FC5
:10340000727465782E6300000CED00E010B5044680
:1034100007280BD0062C09D0052C07D0042C05D08A
:10342000032C03D0922108A007F0C6F8154904F038
:10343000070208684FF6FF03184040EA0220124ACC
:103440001043086010BD00002E2E2F44726976656F
:1034500072732F53544D3332463478785F48414C61
:103460005F4472697665722F5372632F73746D3384
:1034700032663478785F68616C5F636F7274657808
:103480002E6300000CED00E00000FA052DE9F04786
:103490000E4604007DD02068401E0E2804D940F25C
:1034A00051217AA007F088F896B1012E10D0022E93
:1034B0000ED0032E0CD0042E0AD0052E08D0062ED6
:1034C00006D0072E04D040F2522170A007F074F805
:1034D000DFF8F081D8F80000F7B200F00F00B0423A
:1034E00007D288F80070D8F8000000F00F00B04252
:1034F0004FD12068744D810729D5400703D528682E
:1035000040F4E05028602078000703D5286840F494
:1035100060402860A068A0B1802812D0902810D008
:10352000A0280ED0B0280CD0C0280AD0D02808D0AF
:10353000E02806D0F02804D040F2752153A007F00F
:103540003BF82868A16820F0F00008432860207844
:10355000C00743D0DFF870916068A9F1080988B10D
:10356000012822D0022824D0032822D04FF41F7132
:1035700046A007F021F86068012816D0022818D06C
:10358000032816D0D9F800008007002833DA28680D
:1035900000E030E0616820F0030008432860FFF796
:1035A00099FA814641F2883A11E0D9F80000800387
:1035B000EBE7D9F800008001E7E700BFFFF78AFAE0
:1035C000A0EB0901514502D90320BDE8F087286826
:1035D000616800F00C00B0EB810FEFD1D8F800105B
:1035E000404601F00F01B14207D90770006800F0B2
:1035F0000F00B04201D00120E7E720784FF4805659
:1036000040074FF4A0574FF4C0584FF4E05914D579
:10361000E06860B1B0420AD0B84208D0404506D058
:10362000484504D040F2BA2118A006F0C5FF28682A
:10363000E16820F4E050084328602078000715D5A1
:10364000206960B1B0420AD0B84208D0404506D0E7
:10365000484504D040F2C1210CA006F0ADFF286817
:10366000216920F4604040EAC100286000F074F84D
:103670002968164AC1F30311515CC8401449086017
:1036800014480068FFF7B4FD00209EE72E2E2F445B
:103690007269766572732F53544D3332463478789D
:1036A0005F48414C5F4472697665722F5372632F95
:1036B00073746D3332663478785F68616C5F7263FF
:1036C000632E6300003C0240083802401C0D0108D4
:1036D000A4000020980000200F2202600C4A13680A
:1036E00003F003034360136803F0F003836013687F
:1036F00003F4E053C36012684FF4E05303EAD202CC
:1037000002610448006800F00F0008607047000084
:1037100008380240003C0240044805490068096836
:10372000044AC1F38221515CC8407047A4000020C4
:10373000083802402C0D0108044805490068096852
:10374000044AC1F34231515CC8407047A4000020D4
:10375000083802402C0D0108154810B5006810F01B
:103760000C02144813D01449042A0FD0082A0ED191
:103770000F4C241F2268236802F03F025B0207D52A
:103780002068C0F38810A0FB010106E0084610BDC8
:103790002168C1F38811A1FB00010023FCF772FD31
:1037A0002168C1F30141491C4900B0FBF1F010BD93
:1037B000083802400024F400001BB7002DE9F84F40
:1037C00004007DD020680F2803D9E821F7A006F077
:1037D000F3FE2078DFF80C94C007A9F1040555D05A
:1037E00060684FF480364FF4A02738B1B04205D05E
:1037F000B84203D0ED21EDA006F0DEFEF948001D31
:103800000168C1F38101012908D00068C0F381007B
:1038100002280AD1D9F80000400206D528688003A2
:1038200034D560680028CCD030E06068B04203D165
:10383000286840F480300CE0B842286803D140F496
:1038400080202860F4E720F480302860286820F485
:1038500080202860606860B1FFF73CF9064604E00C
:10386000FFF738F9801B64287ED828688003F7D5D5
:103870000CE0FFF72FF9064605E000BFFFF72AF935
:10388000801B6428F0D828688003F7D42078DFF8FC
:10389000588380074FF0000A56D5E06830B1012800
:1038A00004D040F21F11C1A006F086FE20691F2837
:1038B00004D94FF49071BDA006F07EFEC94800E027
:1038C00092E0001D016811F00C0F08D00068C0F3F1
:1038D0008100022810D1D9F8000040020CD42868D9
:1038E000800702D5E06801287ED12868216920F090
:1038F000F80040EAC10017E0E068B8B10120C8F85C
:103900000000FFF7E7F8064605E000BFFFF7E2F822
:10391000801B0228A8D828688007F7D5286820F0DF
:10392000F801206941EAC00028600DE0C8F800A055
:10393000FFF7D0F8064604E0FFF7CCF8801B02281A
:1039400092D828688007F7D4207800072ED5A54E96
:10395000A64F60697036D0B1012808D04FF4B0711D
:1039600092A006F029FE00E04BE1606978B10120E9
:103970003860FFF7AFF8074605E000BFFFF7AAF889
:10398000C01B0228C6D830688007F7D50EE0C7F8FC
:1039900000A0FFF79FF8074605E000BFFFF79AF881
:1039A000C01B0228B6D830688007F7D420784007BB
:1039B00076D5A068002740B1012806D0052804D09C
:1039C0004FF4C67179A006F0F7FDDFF818B20BF1DD
:1039D0003C0BDBF80000C0000DD4DBF8001041F018
:1039E0008051CBF8001000E030E1DBF80000012747
:1039F00000F0805000907E4E3068C00511D43068D1
:103A000040F480703060FFF765F8009006E000BF7A
:103A1000FFF760F80099401A022891D83068C00575
:103A2000F6D5704EA0686C3601280FD00528306896
:103A300010D020F001003060306820F004003060C9
:103A4000A068B8B1FFF746F800900FE0306840F08A
:103A50000100F4E740F004003060F7E7FFF73AF8C0
:103A60000099411A41F2883081428BD83068800732
:103A7000F4D50EE0FFF72EF8009007E0FFF72AF8E4
:103A80000099411A41F2883081428BD83068800712
:103A9000F4D42FB1DBF8001021F08051CBF80010E6
:103AA000A069002876D0012809D0022807D040F26A
:103AB000CF113EA006F080FDA0690028F2D0494851
:103AC000001D0068C0F381000228A0696DD00228A3
:103AD00005D0C8F860A0FEF7FDFF044694E0E06959
:103AE00038B1B0F5800F04D04FF4EC712FA006F080
:103AF00063FD206A3F2804D940F2D9112BA006F0BB
:103B00005BFD606A3238B0F5BF7F04D94FF4ED71C8
:103B100026A006F051FDA06A02280AD0042808D089
:103B2000062806D0082804D040F2DB111FA006F0BA
:103B300043FDE06A801E0D2804D94FF4EE711BA0EE
:103B400006F03AFD4746C8F860A0FEF7C3FF0646F8
:103B500005E000BFFEF7BEFF801B022851D8286891
:103B60008001F7D4D4E907010843A16A214A490832
:103B700002EB0141626A41EA8211084394F82C1079
:103B800040EA0161C9F8001001203866FEF7A2FF83
:103B9000044606E05CE000BFFEF79CFF001B022825
:103BA0002FD828688001F7D552E031E02E2E2F441F
:103BB0007269766572732F53544D33324634787878
:103BC0005F48414C5F4472697665722F5372632F70
:103BD00073746D3332663478785F68616C5F7263DA
:103BE000632E63000438024000004742800E4742C3
:103BF000007000400000FFFFFEF76CFF001B022872
:103C000002D90320BDE8F88F28688001F4D41FE0B2
:103C10000128F7D0D9F80000E26900F48001914250
:103C200014D1226A00F03F0191420FD147F6C071D2
:103C3000626A0140914209D1A26A00F44031914286
:103C400004D1E16A00F07060884201D00120D9E718
:103C50000020D7E770B5040066D05A492068884232
:103C60000AD05949884207D05849884204D04FF4B5
:103C7000A17157A006F0A0FC606838B1B0F5827F52
:103C800004D040F2431152A006F096FCA06850B157
:103C9000B0F5806F07D0B0F5004F04D04FF4A2719B
:103CA0004BA006F089FCE068B0F5006F05D020B1AC
:103CB00040F2451146A006F07FFCA069B0F5007FF8
:103CC00008D038B1B0F5802F04D04FF4A37140A0D4
:103CD00006F072FCE06990B1082810D010280ED0D0
:103CE00018280CD020280AD0282808D0302806D040
:103CF000382804D040F2471135A006F05DFC206A58
:103D000030B1802804D04FF4A47131A006F054FCE7
:103D1000606A58B110281BD040F249112CA006F05F
:103D20004BFC606A10B113E0012070BD206930B116
:103D3000022804D04FF4A67125A006F03DFC60696E
:103D400030B1012804D040F24D1121A006F034FC1E
:103D50000025A56294F8510020B984F850502046FF
:103D600000F052F8022084F851002068016821F028
:103D700040010160D4E901010843D4E90312114371
:103D8000084361690843218B01F400710843E1692C
:103D90000843216A0843A16A084321680860A069B2
:103DA000042101EA1040616A0843216848602068E4
:103DB000C16921F40061C1616565012084F8510089
:103DC000002070BD0030014000380040003C004041
:103DD0002E2E2F447269766572732F53544D3332F1
:103DE000463478785F48414C5F4472697665722F3B
:103DF0005372632F73746D3332663478785F686101
:103E00006C5F7370692E63002DE9F04387B006463E
:103E100014216846FCF780FA34493068884261D141
:103E200033480025016841F480510160006800F4C6
:103E3000805005902E481438016841F0020101605D
:103E4000016801F002010591016841F00101016082
:103E50000068022400F001000590182001274FF0AF
:103E600003084FF005098DE8910369462148FEF7E4
:103E700073FC80208DE8910369461F48FEF76CFCB7
:103E80001F4C1E484FF0C0672060C4E901754FF415
:103E90008068C4E9035865617812A561C4E90750D8
:103EA00020466562FEF73CFA08B1FDF7DCF9F464E0
:103EB000A663134C114860341830E4E80207402030
:103EC000A4E82101C00244F81459A561C4E90750CF
:103ED0000B4865626030FEF723FA08B1FDF7C3F9BD
:103EE000B464A66307B0BDE8F08300000030014071
:103EF0004438024000040240000002404064024096
:103F00007C0700202DE9F84F04460A9E80681D4674
:103F100092468B464FF00109002720B140F25A41EA
:103F200074A006F049FB94F8500001280ED001203F
:103F300084F85000FEF7CEFD804694F85100616889
:103F400001280CD0B1F5827F07D102E00220BDE844
:103F5000F88FA16809B9042801D00227C2E0BBF19B
:103F6000000F27D0BAF1000F24D01DB394F85100F0
:103F7000042802D0052084F8510000206065C4F8B0
:103F800038A0E587A587C4F830B0E586A58620640B
:103F9000606420680168490603D4016841F040016B
:103FA0000160E068B0F5006F606805D0F0B3012DE6
:103FB00046D07FE0012795E008B1012D39D1206B73
:103FC00021680088C860206B801C2063E08E401E42
:103FD000E0862EE02068816889070FD5E18E69B1FF
:103FE000B9F1010F0AD1216B0988C160206B801CD7
:103FF0002063E08E401EE0864FF000092068816853
:10400000C9070CD0E18F51B1C068A16B0880A06BCB
:10401000801CA063E08F401EE0874FF00109FEF78F
:1040200059FDA0EB0800B04203D300E008E0701C8B
:1040300050D1E08E0028CDD1E08F0028CAD13FE0DA
:10404000206B216800780873206B401C2063E08E91
:10405000401EE0862EE02068816889070FD5E18E3A
:1040600069B1B9F1010F0AD1216B09780173206B95
:10407000401C2063E08E401EE0864FF0000920685F
:104080008168C9070CD0E18F51B1C068A16B08707D
:10409000A06B401CA063E08F401EE0874FF0010939
:1040A000FEF718FDA0EB0800B04202D3701C01D04F
:1040B00010E07EB1E08E0028CDD1E08F0028CAD17B
:1040C00042463146204604F049FC28B10127202011
:1040D000606507E0032705E0A06818B92068C1689B
:1040E00080680090012084F85100002084F850007E
:1040F00038462CE72E2E2F447269766572732F5343
:10410000544D3332463478785F48414C5F4472698D
:104110007665722F5372632F73746D333266347801
:10412000785F68616C5F7370692E630010B54FF043
:10413000E024042809D020B140F2C91105A006F0FE
:104140003BFA206920F0040002E0206940F00400FE
:10415000206110BD2E2E2F447269766572732F5325
:10416000544D3332463478785F48414C5F4472692D
:104170007665722F5372632F73746D3332663478A1
:10418000785F68616C5F636F727465782E6300009E
:104190007047704770B50C46054600683E49884236
:1041A00007D03E49884204D040F2A1613CA006F00D
:1041B00003FA2068B0F5006F05D020B140F2A2618B
:1041C00037A006F0F9F96068B0F5806F05D020B12E
:1041D00040F2A36132A006F0EFF9A06868B1B0F533
:1041E000807F0AD0B0F5007F07D0B0F5407F04D0C3
:1041F00040F2A4612AA006F0DFF9E068FF2804D9A4
:1042000040F2A56126A006F0D7F92069B0F5805FDD
:1042100005D020B140F2A66121A006F0CDF9606979
:1042200038B1B0F5005F04D040F2A7611CA006F0E1
:10423000C3F9E069B0F5804F05D020B14FF4D561E6
:1042400017A006F0B9F995F83C00012822D001200A
:1042500085F83C00E068A26820F440701043626872
:1042600020F480601043226820F40060104322692B
:1042700020F480501043626920F400501043E2693A
:10428000002120F4804010432A68506485F83C10D7
:10429000002070BD022070BD0000014000040140FC
:1042A0002E2E2F447269766572732F53544D33321C
:1042B000463478785F48414C5F4472697665722F66
:1042C0005372632F73746D3332663478785F68612C
:1042D0006C5F74696D5F65782E6300002DE9F05F97
:1042E000044600683A4E3B4FDFF8EC80DFF8EC9074
:1042F000DFF8ECA00D464FF0804BB04215D058458A
:1043000013D0B84211D040450FD048450DD04FEAE8
:10431000B641884209D03349884206D0504504D07E
:1043200040F2646130A006F047F9286890B1102887
:1043300010D020280ED030280CD040280AD0502889
:1043400008D0602806D0702804D040F2656126A00D
:1043500006F032F96868802805D020B140F2666125
:1043600021A006F029F994F83C0001282DD0012263
:1043700084F83C20022084F83D00216848688B685E
:1043800020F0700C286840EA0C0048602068B042B9
:104390000FD058450DD0B8420BD0404509D0484504
:1043A00007D0504505D01F49884202D01E49884297
:1043B00004D1696823F080031943816084F83D20AB
:1043C000002084F83C00BDE8F09F0220FBE70000DD
:1043D000000001400004004000080040000C0040C4
:1043E00000040140001400402E2E2F4472697665AF
:1043F00072732F53544D3332463478785F48414CB2
:104400005F4472697665722F5372632F73746D33D4
:1044100032663478785F68616C5F74696D5F657867
:104420002E630000004001400018004010B5040059
:1044300058D03648226882422BD0B2F1804F28D023
:104440003348824225D03348824222D032488242C9
:104450001FD0324882421CD03148824219D03148A4
:10446000824216D03048824213D03048824210D067
:104470002F4882420DD02F4882420AD02E488242D5
:1044800007D02E48824204D04FF489712CA006F048
:1044900093F8A06860B110280AD0202808D04028DE
:1044A00006D0602804D040F2131125A006F084F84D
:1044B000206950B1B0F5807F07D0B0F5007F04D0FF
:1044C0004FF48A711EA006F077F8A06930B18028F9
:1044D00004D040F215111AA006F06EF894F83D00D1
:1044E00010B107E0012010BD002084F83C002046F8
:1044F00000F042F8022084F83D00211D206804F0FD
:10450000B3FB012084F83D00002010BD00000140F5
:104510000004004000080040000C00400010004073
:1045200000140040000401400040014000440140EC
:104530000048014000180040001C004000200040DE
:104540002E2E2F447269766572732F53544D333279
:10455000463478785F48414C5F4472697665722FC3
:104560005372632F73746D3332663478785F686189
:104570006C5F74696D2E630008B502683248334978
:10458000824207D1086840F001000860086800F026
:1045900001004DE02D482E4B001F9A420ED10168BC
:1045A00041F0020101600068002200F0020000906A
:1045B00005211D20FEF7DAFE1D2040E0254B9A4222
:1045C00008D1016841F004010160006800F00400B6
:1045D000009008BD204B9A420ED1016841F01001B5
:1045E00001600068002200F01000009005213620D4
:1045F000FEF7BCFE362022E0184B9A420ED101682D
:1046000041F0200101600068002200F020000090CD
:1046100005213720FEF7AAFE372010E0104882421D
:10462000D7D1086840F400300860086800F4003012
:104630000090002205211920FEF798FE1920BDE800
:104640000840FEF761BE000000000140443802400F
:10465000000400400008004000100040001400402A
:104660000044014010B504460168204881422BD027
:10467000B1F1804F28D01E48814225D01D4881428B
:1046800022D01D4881421FD01C4881421CD01C48AA
:10469000814219D01B48814216D01B48814213D059
:1046A0001A48814210D01A4881420DD019488142DF
:1046B0000AD01948814207D01848814204D040F2FC
:1046C000B91117A005F078FF2068C16841F0010119
:1046D000C1602068816801F00701062903D00168E4
:1046E00041F001010160002010BD00000000014008
:1046F0000004004000080040000C00400010004092
:10470000001400400004014000400140004401400A
:104710000048014000180040001C004000200040FC
:104720002E2E2F447269766572732F53544D333297
:10473000463478785F48414C5F4472697665722FE1
:104740005372632F73746D3332663478785F6861A7
:104750006C5F74696D2E63002DE9F05F054690F87B
:104760003C000C46012841D0012085F83C00022085
:1047700085F83D0020684FF4805B584516D0B0F5B1
:10478000005F13D090B1102810D020280ED0302810
:104790000CD040280AD0502808D0602806D07028B5
:1047A00004D041F28B11D1A005F006FF2868816882
:1047B00021F0770121F47F4181602068D949DA4AEC
:1047C000DA4BDB4EDB4FDFF870C3DFF870834FF05E
:1047D00080494FF4004A50287ED00FDC202804D0B6
:1047E00007DC0028FBD0102852D165E10220BDE88B
:1047F000F09F3028F9D04028F6D12AE160286CD00B
:10480000702873D0584544D04FF400584045EBD140
:10481000286888420ED048450CD090420AD0984271
:1048200008D0B04206D0B84204D041F2B611AFA0D1
:1048300005F0C2FEA06858B1584509D0404507D0E0
:10484000B0F5405F04D041F2B911A8A005F0B4FE64
:104850006068504509D040B1022806D00A2804D02B
:1048600041F2BA11A1A005F0A7FEE0680F2804D913
:1048700041F2BB119DA005F09FFED4E90121E36840
:10488000286804F0CFFA2868816841F4804181608B
:10489000D8E028688842FBD04845F9D09042F7D04C
:1048A0009842F5D0B042F3D0A5498842F0D0A5494E
:1048B0008842EDD0B842EBD06045E9D0A2498842A9
:1048C000E6D0A2498842E3D04045E1D0A0498842E1
:1048D000DED0A049884202E04DE07FE006E0D7D07C
:1048E00041F2971181A005F067FEABE0286888428D
:1048F00012D0484510D090420ED098420CD0B04211
:104900000AD0B84208D0604506D0404504D041F2F4
:104910009E1176A005F050FEA06860B158450AD0FF
:10492000B0F5005F07D0B0F5405F04D041F2A111AF
:104930006EA005F041FE6068504509D040B10228E4
:1049400006D00A2804D041F2A21168A005F034FE76
:10495000E0680F2804D941F2A31164A005F02CFEF1
:10496000D4E90121E368286804F05CFA28688168CA
:1049700041F077018BE72868884212D0484510D073
:1049800090420ED098420CD0B0420AD0B84208D023
:10499000604506D0404504D041F2CA1153A005F04D
:1049A0000BFE6068504509D040B1022806D00A28A5
:1049B00004D041F2CD114DA005F0FEFDE0680F28B6
:1049C00004D941F2CE1149A005F0F6FDE268616814
:1049D000286804F0E9FB5021286831E02868884203
:1049E00012D0484510D090420ED098420CD0B04220
:1049F0000AD0B84208D0604506D0404504D041F204
:104A0000DA113AA005F0D8FD6068504509D040B1F0
:104A1000022806D00A2804D041F2DD1133A005F0A7
:104A2000CBFDE0680F2804D941F2DE112FA005F07C
:104A3000C3FDE2686168286804F0C7FB602128684C
:104A400004F0FAF9012085F83D00002085F83C00CB
:104A5000CDE62868884212D0484510D090420ED04A
:104A600098420CD0B0420AD0B84208D0604506D077
:104A7000404504D041F2EA111CA005F09DFD60689C
:104A8000504509D040B1022806D00A2804D041F28E
:104A9000ED1116A005F090FDE0680F2804D941F251
:104AA000EE1112A005F088FDE2686168286804F044
:104AB0007BFB40212868C3E72868884212D048451C
:104AC00010D090420ED098420CD0B0420AD0B842DA
:104AD00008D0604506D0404504D041F2FD1103A046
:104AE00005F06AFD21682868AAE700002E2E2F44F1
:104AF0007269766572732F53544D33324634787829
:104B00005F48414C5F4472697665722F5372632F20
:104B100073746D3332663478785F68616C5F746982
:104B20006D2E6300000001400004004000080040BA
:104B3000000C00400004014000400140001800400B
:104B400000100040001400400044014000480140B3
:104B5000001C004000200040704770B5044600680B
:104B600001694FF00005C943890715D4C168C943DD
:104B7000890711D4E91E016101202077206880692E
:104B80008007204602D0FFF7E7FF04E000F00CF9B1
:104B9000204600F0F0FA257720680169C9434907EB
:104BA00017D4C168C943490713D46FF004010161E8
:104BB000022020772068806910F4407F204602D0D0
:104BC000FFF7CAFF04E000F0EFF8204600F0D3FA48
:104BD000257720680169C943090716D4C168C9430C
:104BE000090712D46FF008010161042020772068C2
:104BF000C0698007204602D0FFF7AEFF04E000F056
:104C0000D3F8204600F0B7FA257720680169C94338
:104C1000C90617D4C168C943C90613D46FF010017F
:104C20000161082020772068C06910F4407F204689
:104C300002D0FFF791FF04E000F0B6F8204600F044
:104C40009AFA257720680169C943C90708D1C16864
:104C5000C943C90704D1891E0161204600F042FB07
:104C600020680169C943090609D4C168C943090616
:104C700005D46FF0800101612046FFF789FA2068B2
:104C80000169C943490609D4C168C943490605D425
:104C90006FF040010161204600F050FB206801697F
:104CA000C94389060BD4C168C943890607D46FF08C
:104CB000200101612046BDE87040FFF76ABA70BD6F
:104CC00070B586B0044614216846FBF725FB2D4DD0
:104CD000236800242C4902200122AB4219D10B6821
:104CE00043F010030B600968029401F01001059174
:104CF0000102CDE90010CDE9030269462348FDF722
:104D00002BFD0021224800F037FA09F0DBFA06B04B
:104D100070BD204E0325B3421AD10B6843F008033F
:104D20000B60096801AB01F0080105913114009195
:104D300083E82500049069461748FDF70DFD1448E7
:104D40000821803000F018FA12483C300460DEE799
:104D5000124CA342DBD10B6843F020030B600968BF
:104D6000CDE9022001F0200105914021CDE900109C
:104D7000694604950A48FDF7EFFC0021094800F058
:104D8000FBF9C4E700000140303802400010024047
:104D90003C08002000080040000C02400044014094
:104DA000001402407C090020704700002DE9F05FEC
:104DB0005FEA020A0D46044610D0BAF1040F0DD086
:104DC000BAF1080F0AD0BAF10C0F07D0BAF13C0FB4
:104DD00004D040F6EC517BA005F0EEFB286860287B
:104DE00006D0702804D040F6ED5176A005F0E4FB23
:104DF000A86830B1022804D040F6EE5171A005F049
:104E0000DBFB286930B1042804D040F6EF516DA0D7
:104E100005F0D2FB94F83C0001281ED04FF0010BA6
:104E200084F83CB0022084F83D007449744B754E00
:104E3000754FDFF8D8C1DFF8D891764A4FF0804837
:104E4000BAF1000F0CD0BAF1040F3ED0BAF1080F3E
:104E500066D0BAF10C0F62D187E00220BDE8F09F66
:104E6000206888421ED040451CD098421AD0B042DB
:104E700018D0B84216D0604514D0484512D06649C3
:104E800088420FD0654988420CD090420AD06449CC
:104E9000884207D06349884204D040F6FB5149A0BC
:104EA00005F08AFB2946206803F0CEFF206881695F
:104EB00041F0080181612068816921F0040181616C
:104EC000206881692A69114328E02068884212D04D
:104ED000404510D098420ED0B0420CD0B8420AD013
:104EE000604508D0484506D0904204D040F60C6199
:104EF00034A005F061FB2946206804F017F820680B
:104F0000816941F4006181612068816921F48061D7
:104F10008161206881692A6941EA022181614AE050
:104F2000206888420ED040450CD098420AD0B0424A
:104F300008D0B84206D0604504D040F61D6121A0DB
:104F400005F03AFB2946206804F066F82068C1693C
:104F500041F00801C1612068C16921F00401C1610B
:104F60002068C1692A69114324E0206888420ED074
:104F700040450CD098420AD0B04208D0B84206D082
:104F8000604504D040F62E610EA005F015FB2946C1
:104F9000206804F0B7F82068C16941F40061C1617C
:104FA0002068C16921F48061C1612068C1692A69F2
:104FB00041EA0221C16184F83DB0002084F83C0040
:104FC0004CE700002E2E2F447269766572732F53C2
:104FD000544D3332463478785F48414C5F447269AF
:104FE0007665722F5372632F73746D333266347823
:104FF000785F68616C5F74696D2E6300000001402A
:105000000004004000080040000C00400004014083
:1050100000400140001800400044014000480140A9
:10502000001C00400020004010B5040058D0364855
:10503000226882422BD0B2F1804F28D0334882427E
:1050400025D03348824222D0324882421FD0324893
:1050500082421CD03148824219D03148824216D057
:105060003048824213D03048824210D02F488242CA
:105070000DD02F4882420AD02E48824207D02E48B7
:10508000824204D040F29B412CA005F095FAA06822
:1050900060B110280AD0202808D0402806D0602807
:1050A00004D040F29C4125A005F086FA206950B159
:1050B000B0F5807F07D0B0F5007F04D040F29D416D
:1050C0001EA005F079FAA06930B1802804D040F222
:1050D0009E411AA005F070FA94F83D0010B107E067
:1050E000012010BD002084F83C00204600F042F86A
:1050F000022084F83D00211D206803F0B5FD012049
:1051000084F83D00002010BD000001400004004074
:1051100000080040000C0040001000400014004057
:1051200000040140004001400044014000480140AB
:1051300000180040001C0040002000402E2E2F448C
:105140007269766572732F53544D333246347878D2
:105150005F48414C5F4472697665722F5372632FCA
:1051600073746D3332663478785F68616C5F74692C
:105170006D2E6300704770472DE9F04105460068C9
:105180003F4E404F0C46B04207D1002C53D0042C68
:1051900051D0082C4FD00C2C4DD0B0F1804F65D0A1
:1051A0003949884207D1002C45D0042C43D0082C23
:1051B00041D00C2C3FD03549884206D1BCB3042CD9
:1051C00039D0082C37D00C2C35D03149884206D143
:1051D0006CB3042C2FD0082C2DD00C2C2BD0B84223
:1051E00006D124B3042C26D0082C24D00C2C22D099
:1051F0002849884202D1D4B1042C1CD026498842C7
:1052000000D1A4B12549884200D184B12449884203
:1052100002D164B1042C0ED02249884200D134B1AD
:105220002149884200D114B140F2135100E002E05C
:105230001EA005F0C1F901222146286803F078FD7F
:105240002868B04201D0B84203D1416C41F400411A
:1052500041642868816801F00701062903D00168CC
:1052600041F0010101600020BDE8F081002CE2D096
:10527000042CE0D0082CDED00C2CDCD0D4E70000CD
:10528000000001400004014000040040000800400C
:10529000000C004000400140004401400048014033
:1052A00000180040001C0040002000402E2E2F441B
:1052B0007269766572732F53544D33324634787861
:1052C0005F48414C5F4472697665722F5372632F59
:1052D00073746D3332663478785F68616C5F7469BB
:1052E0006D2E63000068B0F1804F0BD00E498842EC
:1052F0000AD10E4908684A68401C42F10002086061
:105300004A607047FDF752BF09498842F9D1094800
:1053100001684268491C42F100020160426006488F
:10532000816806F0C1BB0000000400403800002086
:105330000010004000000020F07B0020704710B5F6
:1053400004460068416994F83920C1F3C011212A4C
:105350000BD151B1416921F080014161206B08B14D
:10536000FCF7B5FE204604F0C1F82068416994F8C6
:105370003A20C1F38011222A0BD151B1416921F0A9
:1053800040014161606B08B1FCF7A1FE204604F0CA
:105390009FF8002010BD704770B502680446106881
:1053A000D168536910F00F0F52D003F0010501F4DA
:1053B00090762E435FD0C20705D0CA0503D5E26BB5
:1053C00042F00102E263420705D5DA0703D0E26B3F
:1053D00042F00202E263820705D5DA0703D0E26BEE
:1053E00042F00402E263020707D501F020022A43DB
:1053F00003D0E26B42F00802E263E26B002A33D092
:10540000800604D5880602D5204604F078F8206886
:105410004069E16BC0F38010090700D428B320462F
:1054200004F056F82068416949061AD5416921F00F
:1054300040014161606BA0B11B490165606BFCF7E5
:105440008DFE002810D0606B016DBDE870400847EC
:10545000830610D58B060ED52046BDE8704004F0BB
:105460004EB82046FFF797FF70BD2046FFF793FF29
:105470000020E06370BD030606D50B0604D5204668
:10548000BDE8704004F064B94006F3D54806F1D594
:10549000D168204621F04001D160202184F83910E4
:1054A00000F095FA70BD00003194000870B504005A
:1054B00023D0A0693B4900283B4A3C4B3C4D206827
:1054C0001DD088420CD090420AD0984208D0A84201
:1054D00006D040F24B1137A005F06EF8A06908B372
:1054E000A069B0F5807F1DD0B0F5007F1AD0B0F56F
:1054F000407F17D04FF4A67111E0012070BD8842A3
:1055000010D090420ED098420CD03949884209D030
:105510003849884206D0A84204D04FF4A87125A08B
:1055200005F04AF8A06838B1B0F5805F04D04FF4B8
:10553000A97120A005F040F8E06938B1B0F5004F3E
:1055400004D040F253111BA005F036F894F839004E
:10555000002520B984F83850204600F04DF824206A
:1055600084F839002068C16821F40051C1602046E8
:1055700004F010F82068016921F49041016120686D
:10558000416921F02A0141612068C16841F400515C
:10559000C160E563202084F8390084F83A000020D7
:1055A00070BD000000100140004400400048004071
:1055B000001401402E2E2F447269766572732F53AA
:1055C000544D3332463478785F48414C5F447269B9
:1055D0007665722F5372632F73746D33326634782D
:1055E000785F68616C5F756172742E630000000003
:1055F000004C0040005000402DE9F04F87B00446B9
:1056000014216846FAF788FE90488F4B143802221E
:10561000D4F800C08D491704002506154FF0070B7C
:105620009C456CD10B68AA4643F010030B600968D7
:1056300001F010010591016841F00201016001686B
:1056400001F002010591016841F00101016000686B
:1056500002AB00F0010005908020CDE900024FF080
:10566000030883E82009914669467948FDF774F8F4
:105670007010CDE9000902AB694683E8200975483E
:10568000FDF76AF8DFF8D481734940464FF00069AE
:10569000E0E80219402162C0890240F8145985618E
:1056A000C0E907514046C8F82450FCF739FE08B15C
:1056B000FBF7D9FD694D6848C4F830806035303853
:1056C000C8F83840C5E90009C5F808A0C5E903A62F
:1056D000C5F814A0C5F818A0C5E907A72846C5F85D
:1056E00024A0FCF71DFE08B1FBF7BDFD6563002299
:1056F00003212520AC63FDF739FE2520A1E0DFF86A
:1057000060810123C4453FD15049091FD1F800C031
:105710004CF4802CC1F800C0096801F48021059187
:10572000016841F0040101600068694600F004006E
:1057300005904FF440608DE80D00CDE9032B4948FA
:10574000FDF70AF8DFF81481474908F1C008404620
:10575000C8F800104FF00061C0E90115C0E9035618
:10576000C8F81450C8F81850C8E90757C8F82450AA
:10577000FCF7D6FD08B1FBF776FDC4F83480C8F815
:10578000384007B0BDE8F08FDFF8E080C445F8D1BD
:10579000D1F800C04CF0200CC1F800C0096801F03D
:1057A00020010591016841F04001016000686946EF
:1057B00000F0400005904FF484408DE80D00082073
:1057C000CDE903202A48FCF7C7FF2349DFF8A4806E
:1057D000903940464FF02069C8F80010C0E90195A3
:1057E000C0E90356C8F81450C8F81850C8E907575C
:1057F000C8F82450FCF794FD08B1FBF734FD1D4FA9
:105800001548C4F8348060371838C8F83840E7E8DD
:105810000209402061C7800247F81459BD61C7E9F9
:10582000075014487D626030FCF77AFD08B1FBF741
:105830001AFD2763002205214720BC63FDF796FD72
:105840004720FDF761FD9CE700100140443802400D
:105850000004024000000240B8640240D80A002060
:105860000048004000080240286002400014014047
:1058700000180240F80B0020F8B5044690F83A00F2
:1058800020283CD1C1B3BAB394F83800012836D0EF
:10589000012084F83800A162A2850025E56322205A
:1058A00084F83A00636B1748D863636B1648186432
:1058B000636B1648D864606B134605650846666BD3
:1058C000216802463046091DFCF79AFE20680168EF
:1058D0004168009184F83850C16841F48071C1601A
:1058E0002068416941F0010141612068416941F04E
:1058F000400141610020F8BDFFE70120FBE70220E5
:10590000F9E700008B940008C79400084194000850
:10591000704770472DE9F843044690F839001F4658
:1059200016460D46202850D1B5B1AEB194F83800D6
:1059300001284AD0012084F838004FF00008C4F84C
:105940003C80212084F83900FDF7C4F8A684814604
:10595000E68484F8388026E00120BDE8F883E08CF6
:10596000401EE084A0684B46B0F5805F4FF0000217
:105970004FF080012046009703D003F01AFFE8B9EA
:105980000DE003F016FFC8B928882168C0F30800AD
:105990004860206908B16D1C05E0AD1C03E021687A
:1059A00015F8010B4860E08C0028D8D14B46002246
:1059B00040212046009703F0FCFE08B10320CCE70D
:1059C000202084F839000020C7E70220C5E770478F
:1059D000FEE701684A69D24352050FD46FF4806232
:1059E0004A61002140F8301F20224273817302690E
:1059F00042F00402026101730120704700207047E9
:105A00002DE9F84F0446006889460B9D01689846C9
:105A1000174641F4806101602068016841F480719B
:105A2000016000954FF0011B0022594620460A9B59
:105A300000F0DEF84FF4007A40B120680068C0053D
:105A400001D5C4F840A00320BDE8F88F216809F013
:105A5000FE0008612B46284920460A9A00F0FCF80F
:105A6000F0BB20684169806900902A4620460A9967
:105A700000F070F940B1206C04283AD12068016828
:105A800041F40071016034E0FEB2B8F1010F09D0B9
:105A90002168380A08612A4620460A9900F05AF916
:105AA0000028E8D1206806612A4620460A9900F0BD
:105AB00051F90028DFD12068016841F4807101604C
:105AC00000950022594620460A9B00F091F80028D4
:105AD000B3D1216809F0FF0040F00100086100E047
